:100000000C945C000C946E000C946E000C946E00CA
:100010000C946E000C946E000C9477010C946E009E
:100020000C946E000C946E000C946E000C946E0098
:100030000C946E000C946E000C946E000C946E0088
:100040000C942D010C946E000C946E000C946E00B8
:100050000C946E000C946E000C946E000C946E0068
:100060000C946E000C946E00000000002400270029
:100070002A0000000000250028002B0004040404CE
:100080000404040402020202020203030303030342
:10009000010204081020408001020408102001021F
:1000A00004081020000000080002010000030407FB
:1000B000000000000000000011241FBECFEFD8E0B8
:1000C000DEBFCDBF21E0A0E0B1E001C01D92A930AC
:1000D000B207E1F70E948E010C949E020C9400007E
:1000E000EDEAF0E09491E9E9F0E02491E5E8F0E050
:1000F000E491EE2309F43CC0992339F1933091F057
:1001000038F49130A9F0923001F594B59F7D12C07A
:10011000973091F09830A1F09430B9F4909180002C
:100120009F7D03C0909180009F77909380000DC0C9
:1001300094B59F7794BD09C09091B0009F7703C09C
:100140009091B0009F7D9093B000F0E0EE0FFF1F04
:10015000EE58FF4FA591B4919FB7F894811104C058
:100160008C912095282302C0EC912E2B2C939FBFBD
:100170000895E9E9F0E02491E5E8F0E0849188232E
:1001800099F090E0880F991FFC01E859FF4FA59165
:10019000B491FC01EE58FF4F859194918FB7F8947C
:1001A000EC91E22BEC938FBF08953FB7F8948091C8
:1001B000050190910601A0910701B091080126B5B3
:1001C000A89B05C02F3F19F00196A11DB11D3FBF8F
:1001D000BA2FA92F982F8827820F911DA11DB11D1D
:1001E000BC01CD0143E0660F771F881F991F4A9518
:1001F000D1F708958F929F92AF92BF92CF92DF92E4
:10020000EF92FF926B017C010E94D5004B015C01D3
:1002100084E0C81AD108E108F108C80CD91CEA1C0E
:10022000FB1CC814D904EA04FB0438F40E94D5006E
:1002300086169706A806B906C8F30E94D5006C1565
:100240007D058E059F05C8F3FF90EF90DF90CF905E
:10025000BF90AF909F908F9008951F920F920FB60E
:100260000F9211242F933F938F939F93AF93BF933C
:100270008091010190910201A0910301B0910401CC
:100280003091000126E0230F2D3720F40296A11DA6
:10029000B11D05C029E8230F0396A11DB11D2093B0
:1002A00000018093010190930201A0930301B09398
:1002B00004018091050190910601A0910701B09180
:1002C00008010196A11DB11D8093050190930601BF
:1002D000A0930701B0930801BF91AF919F918F91B7
:1002E0003F912F910F900FBE0F901F9018951F9266
:1002F0000F920FB60F9211248F930FB6F894A89512
:1003000080916000886180936000109260000FBE51
:100310008F910F900FBE0F901F901895CF93DF9382
:10032000CDB7DEB7A2970FB6F894DEBF0FBECDBF34
:10033000789484B5826084BD84B5816084BD85B5C0
:10034000826085BD85B5816085BD80916E008160CC
:1003500080936E0010928100809181008260809372
:100360008100809181008160809381008091800074
:100370008160809380008091B10084608093B1009F
:100380008091B00081608093B00080917A00846099
:1003900080937A0080917A00826080937A008091C5
:1003A0007A008E7F80937A0080917A0080688093B3
:1003B0007A001092C10098EEA92E93E0B92E28EB96
:1003C000822E2BE0922E33E2232E312C0E94B90094
:1003D000FE01319687E090E022EA30E0082E02C06C
:1003E000359527950A94E2F720FF05C09182808217
:1003F000B382A28204C0B182A082938282820197DA
:1004000034968F3F2FEF920739F783E090E09AA35D
:1004100089A310926F000E94B90080E00E947000D2
:1004200092E090938000E1E1E093810089E690E022
:1004300090938700809386003092890020928800F4
:10044000FE0131967F0100E010E0F70160817181CB
:100450008091800000FF02C08F7701C08068809388
:1004600080006115710549F080E090E0653071050C
:100470008105910510F00E94FA000F5F1F4FF2E016
:10048000EF0EF11C0F30110501F7809180008F777E
:10049000809380000E94D5006B017C0182E3482E8E
:1004A000512C612C712C0E94D500DC01CB018C19E0
:1004B0009D09AE09BF09883E9340A105B10598F397
:1004C00021E0421A51086108710888EEC80E83E0E5
:1004D000D81EE11CF11C411451046104710419F788
:1004E00089A19AA101979AA389A3892B09F091CF99
:1004F00081E00E94700010927A0014BE88E180931F
:10050000600086E480936000A89583B7817F846053
:1005100083BFF89483B7816083BF80E685BF80E4A2
:1005200085BF7894889583B78E7F83BF80E090E005
:10053000892B09F44BCF0E94000048CFF894FFCFDD
:00000001FF
